:100000000C9434000C9451000C9451000C94510049
:100010000C9451000C94B9000C9451000C945100B4
:100020000C9451000C942A010C9451000C94510032
:100030000C9451000C9451000C9451000C945100FC
:100040000C9451000C9451000C944A010C945100F2
:100050000C9451000C9451000C9451000C945100DC
:100060000C9451000C94510011241FBECFEFD8E026
:10007000DEBFCDBF11E0A0E0B1E0EAE1F4E002C0F4
:1000800005900D92A230B107D9F721E0A2E0B1E0CE
:1000900001C01D92AA35B207E1F70E9460010C94DD
:1000A0000B020C940000CF92DF92EF92FF920F931D
:1000B0001F93CF93DF93EC019B0197FF04C0882728
:1000C00099278C1B9D0B790110E000E04AE0C42EBB
:1000D000D12CF8013196B6010E94E301805DD70171
:1000E0008D937D01CB011816190634F1D7FF06C098
:1000F000E20FF31F8DE28083F8013296E20FF31FC7
:100100001082D901FD01E21BF30B8D918111FACF11
:10011000CF010197E20FF31FD901AD01421B530B31
:10012000481759075CF0DF91CF911F910F91FF9015
:10013000EF90DF90CF9008958F01CBCF4D915291EA
:10014000ED012197588340830197E7CFAC0190E000
:10015000FA01E90FF11D97FDFA952081211101C0E7
:1001600008958091C00085FFFCCF2093C6009F5F5B
:10017000EFCF1F920F920FB60F9211244F935F9300
:100180006F937F938F939F93EF93FF934B9B36C017
:1001900089B18091060190910701FC01EE0FFF1FCC
:1001A000EE0FFF1FEE5CFE4F4091080150910901D8
:1001B000052E000C660B770B40835183628373839B
:1001C00010920901109208018930910589F410926A
:1001D000070110920601FF91EF919F918F917F91FE
:1001E0006F915F914F910F900FBE0F901F901895D8
:1001F00001969093070180930601EDCF4A9BEBCFC8
:1002000083B18091020190910301FC01EE0FFF1F69
:10021000EE0FFF1FE65FFE4F409104015091050174
:10022000052E000C660B770B40835183628373832A
:1002300010920501109204018930910529F4109261
:10024000030110920201C7CF01969093030180939E
:100250000201C1CF1F920F920FB60F9211248F93FC
:100260009F93809108019091090101969093090153
:10027000809308018091040190910501019690936B
:100280000501809304019F918F910F900FBE0F90F5
:100290001F9018951F920F920FB60F9211248F93F3
:1002A0009F932E9A8091C60090E0909301018093D5
:1002B00000019F918F910F900FBE0F901F90189586
:1002C000CF93DF93CDB7DEB760970FB6F894DEBF5C
:1002D0000FBECDBF279A559A569A219A229A5398C3
:1002E0005798529820982F981092C5008CE08093D0
:1002F000C40088E98093C10086E08093C200269AFA
:100300001092B00081E0809370001092B100809153
:10031000680084608093680080916D008C60809399
:100320006D0078941CE22E985D9A5E9A299A2A981C
:1003300080910001909101018130910519F45D983F
:100340005E98F1CF8230910519F45D985E9AEBCFFB
:100350008330910511F45D9AF3CF8430910519F43F
:1003600029982A98E0CF8530910519F429982A9A7E
:10037000DACF8630910511F4299AF3CF079799F6D1
:10038000BE016F5F7F4F90E080E00E945300CE017E
:1003900001960E94A6008091C00085FFFCCF1093BB
:1003A000C600BE016F5F7F4F90E080E00E94530067
:1003B000CE0101960E94A6008091C00085FFFCCF6F
:1003C0001093C600B0CF97FB072E16F4009407D009
:1003D00077FD09D00E94F70107FC05D03EF4909507
:1003E00081959F4F0895709561957F4F0895AA1B41
:1003F000BB1B51E107C0AA1FBB1FA617B70710F010
:10040000A61BB70B881F991F5A95A9F78095909541
:0A041000BC01CD010895F894FFCF60
:02041A00FFFFE2
:00000001FF
