:020000040000FA
:100000000C9434000C9451000C9451000C94510049
:100010000C9451000C94B9000C9451000C945100B4
:100020000C9451000C942A010C9451000C94510032
:100030000C9451000C9451000C9451000C945100FC
:100040000C9451000C9451000C944A010C945100F2
:100050000C9451000C9451000C9451000C945100DC
:100060000C9451000C94510011241FBECFEFD8E026
:10007000DEBFCDBF11E0A0E0B1E0E2E1F4E002C0FC
:1000800005900D92A230B107D9F721E0A2E0B1E0CE
:1000900001C01D92AA35B207E1F70E9460010C94DD
:1000A00007020C940000CF92DF92EF92FF920F9321
:1000B0001F93CF93DF93EC019B0197FF04C0882728
:1000C00099278C1B9D0B790110E000E04AE0C42EBB
:1000D000D12CF8013196B6010E94DF01805DD70175
:1000E0008D937D01CB011816190634F1D7FF06C098
:1000F000E20FF31F8DE28083F8013296E20FF31FC7
:100100001082D901FD01E21BF30B8D918111FACF11
:10011000CF010197E20FF31FD901AD01421B530B31
:10012000481759075CF0DF91CF911F910F91FF9015
:10013000EF90DF90CF9008958F01CBCF4D915291EA
:10014000ED012197588340830197E7CFAC0190E000
:10015000FA01E90FF11D97FDFA952081211101C0E7
:1001600008958091C00085FFFCCF2093C6009F5F5B
:10017000EFCF1F920F920FB60F9211244F935F9300
:100180006F937F938F939F93EF93FF934B9B36C017
:1001900089B18091060190910701FC01EE0FFF1FCC
:1001A000EE0FFF1FEE5CFE4F4091080150910901D8
:1001B000052E000C660B770B40835183628373839B
:1001C00010920901109208018930910589F410926A
:1001D000070110920601FF91EF919F918F917F91FE
:1001E0006F915F914F910F900FBE0F901F901895D8
:1001F00001969093070180930601EDCF4A9BEBCFC8
:1002000083B18091020190910301FC01EE0FFF1F69
:10021000EE0FFF1FE65FFE4F409104015091050174
:10022000052E000C660B770B40835183628373832A
:1002300010920501109204018930910529F4109261
:10024000030110920201C7CF01969093030180939E
:100250000201C1CF1F920F920FB60F9211248F93FC
:100260009F93809108019091090101969093090153
:10027000809308018091040190910501019690936B
:100280000501809304019F918F910F900FBE0F90F5
:100290001F9018951F920F920FB60F9211248F93F3
:1002A0009F932E9A8091C60090E0909301018093D5
:1002B00000019F918F910F900FBE0F901F90189586
:1002C000CF93DF93CDB7DEB760970FB6F894DEBF5C
:1002D0000FBECDBF279A559A569A219A229A5398C3
:1002E0005798529820982F981092C5008CE08093D0
:1002F000C40088E98093C10086E08093C200269AFA
:100300001092B00081E0809370001092B100809153
:10031000680084608093680080916D008C60809399
:100320006D0078941CE22E9880910001909101015B
:100330008130910519F45D985E98F5CF8230910572
:1003400019F45D985E9AEFCF8330910511F45D9AB0
:10035000F3CF8430910519F429982A98E4CF853099
:10036000910519F429982A9ADECF8630910511F467
:10037000299AF3CF0797B9F6BE016F5F7F4F90E0E0
:1003800080E00E945300CE0101960E94A600809159
:10039000C00085FFFCCF1093C600BE016F5F7F4F8A
:1003A00090E080E00E945300CE0101960E94A600DA
:1003B0008091C00085FFFCCF1093C600B4CF97FB9F
:1003C000072E16F4009407D077FD09D00E94F301A0
:1003D00007FC05D03EF4909581959F4F0895709548
:1003E00061957F4F0895AA1BBB1B51E107C0AA1F4F
:1003F000BB1FA617B70710F0A61BB70B881F991FC6
:100400005A95A9F780959095BC01CD010895F8946F
:04041000FFCFFFFF1C
:107800000C94343C0C94513C0C94513C0C94513CE1
:107810000C94513C0C94513C0C94513C0C94513CB4
:107820000C94513C0C94513C0C94513C0C94513CA4
:107830000C94513C0C94513C0C94513C0C94513C94
:107840000C94513C0C94513C0C94513C0C94513C84
:107850000C94513C0C94513C0C94513C0C94513C74
:107860000C94513C0C94513C11241FBECFEFD8E036
:10787000DEBFCDBF11E0A0E0B1E0ECE9FFE702C060
:1078800005900D92A230B107D9F712E0A2E0B1E065
:1078900001C01D92AD30B107E1F70E942D3D0C945F
:1078A000CC3F0C94003C982F959595959595959582
:1078B000905D8F708A307CF0282F295A8091C0000B
:1078C00085FFFCCF9093C6008091C00085FFFCCF60
:1078D0002093C6000895282F205DF0CF982F809127
:1078E000C00085FFFCCF9093C6000895EF92FF92F1
:1078F0000F931F93EE24FF2487018091C00087FD22
:1079000017C00894E11CF11C011D111D81E4E8164B
:1079100082E4F8068FE0080780E0180770F3E09132
:107920000401F091050109958091C00087FFE9CF1E
:107930008091C6001F910F91FF90EF9008950E94D3
:10794000763C982F8091C00085FFFCCF9093C600B5
:1079500091362CF490330CF09053892F089597555D
:10796000892F08951F930E949F3C182F0E949F3CCF
:107970001295107F810F1F9108951F93182F882350
:1079800021F00E94763C1150E1F71F9108951F935A
:10799000182F0E94763C803249F0809103018F5F5E
:1079A000809303018530C1F01F9108958091C0003C
:1079B00085FFFCCF84E18093C6008091C00085FFE5
:1079C000FCCF1093C6008091C00085FFFCCF80E102
:1079D0008093C6001F910895E0910401F091050184
:1079E00009951F9108950E94763C803241F0809164
:1079F00003018F5F80930301853081F008958091AA
:107A0000C00085FFFCCF84E18093C6008091C00058
:107A100085FFFCCF80E18093C6000895E0910401CA
:107A2000F09105010995089540E951E08823A1F0FE
:107A30002D9A28EE33E0FA013197F1F721503040CA
:107A4000D1F72D9828EE33E0FA013197F1F7215064
:107A50003040D1F7815061F708953F924F925F9285
:107A60006F927F928F929F92AF92BF92CF92DF924E
:107A7000EF92FF920F931F93CF93DF93000080E16B
:107A80008093C4001092C50088E18093C10086E015
:107A90008093C2005098589A259A81E00E94143D24
:107AA00024E1F22E9EE1E92E85E9D82E0FE0C02ECA
:107AB00010E1B12EAA24A394B1E49B2EA6E58A2E50
:107AC000F2E57F2EE0E26E2E79E4572E63E5462E36
:107AD00050E5352E0E94763C8033B1F18133B9F107
:107AE000803409F46FC0813409F476C0823409F41B
:107AF00085C0853409F488C0803531F1823521F1A3
:107B0000813511F1853509F485C0863509F48DC0BC
:107B1000843609F496C0843709F403C1853709F423
:107B200072C1863709F466C0809103018F5F80932C
:107B30000301853079F6E0910401F0910501099582
:107B40000E94763C803351F60E94F33CC3CF0E94E2
:107B5000763C803249F78091C00085FFFCCFF092DF
:107B6000C6008091C00085FFFCCF9092C600809136
:107B7000C00085FFFCCF8092C6008091C00085FFC9
:107B8000FCCF7092C6008091C00085FFFCCF609250
:107B9000C6008091C00085FFFCCF5092C600809146
:107BA000C00085FFFCCF4092C6008091C00085FFD9
:107BB000FCCF3092C6008091C00085FFFCCFB09210
:107BC000C60088CF0E94763C863808F4BDCF0E945C
:107BD000763C0E94F33C7ECF0E94763C803809F4CC
:107BE0009CC0813809F40BC1823809F43CC1883942
:107BF00009F48FC080E00E94C73C6CCF84E10E94F2
:107C0000BD3C0E94F33C66CF85E00E94BD3C0E94D3
:107C1000F33C60CF0E94763C809306010E94763C44
:107C2000809307010E94F33C55CF0E94763C80333D
:107C300009F41DC183E00E94BD3C80E00E94C73C66
:107C400049CF0E94763C809309020E94763C809343
:107C5000080280910C028E7F80930C020E94763C79
:107C6000853409F415C18091080290910902892B8D
:107C700089F000E010E00E94763CF801E85FFE4FDA
:107C800080830F5F1F4F80910802909109020817AF
:107C9000190788F30E94763C803209F045CF809125
:107CA0000C0280FF01C16091060170910701660F0F
:107CB000771F7093070160930601A0910802B091AD
:107CC00009021097C9F0E8E0F1E09B01AD014E0F09
:107CD0005F1FF999FECF32BD21BD819180BDFA9A17
:107CE000F99A2F5F3F4FE417F50799F76A0F7B1F4B
:107CF00070930701609306018091C00085FFFCCF5F
:107D0000F092C6008091C00085FFFCCFB092C60003
:107D1000E1CE83E00E94C73CDDCE82E00E94C73CFA
:107D2000D9CE0E94763C809309020E94763C8093D3
:107D300008028091060190910701880F991F909386
:107D40000701809306010E94763C853409F4A6C0A1
:107D500080910C028E7F80930C020E94763C8032D0
:107D600009F0B8CE8091C00085FFFCCFF092C6002C
:107D7000609108027091090261157105B9F140E046
:107D800050E080910C02A82FA170B82FB27011C0E2
:107D9000BB2309F45CC0E0910601F0910701319624
:107DA000F0930701E09306014F5F5F4F46175707B7
:107DB000E8F4AA2369F3F999FECF209106013091E6
:107DC000070132BD21BDF89A90B58091C00085FFB2
:107DD000FCCF9093C6002F5F3F4F30930701209355
:107DE00006014F5F5F4F4617570718F38091C00099
:107DF00085FDE5CE8091C00085FFF8CFE0CE81E023
:107E00000E94C73C67CE0E94763C803209F08CCE3F
:107E10008091C00085FFFCCFF092C6008091C00029
:107E200085FFFCCFE092C6008091C00085FFFCCFAB
:107E3000D092C6008091C00085FFFCCFC092C600E2
:107E40008091C00085FFFCCFB092C60043CEE09188
:107E50000601F091070194918091C00085FFFCCF4D
:107E60009093C6009CCF80E10E94C73C33CE0E9415
:107E7000763C0E94763C182F0E94763C112309F430
:107E800083C0113009F484C08FE00E94C73C22CE29
:107E900080910C02816080930C02E5CE80910C02EF
:107EA000816080930C0259CF809107018823880F4D
:107EB000880B8A2180930B02809106019091070123
:107EC000880F991F90930701809306018091080203
:107ED00080FF09C080910802909109020196909359
:107EE000090280930802F894F999FECF1127E091D6
:107EF0000601F0910701C8E0D1E08091080290915D
:107F00000902103091F40091570001700130D9F34B
:107F100003E000935700E89500915700017001308D
:107F2000D9F301E100935700E89509901990009169
:107F3000570001700130D9F301E000935700E89534
:107F40001395103498F011270091570001700130FB
:107F5000D9F305E000935700E895009157000170B0
:107F60000130D9F301E100935700E895329602976A
:107F700009F0C7CF103011F00296E5CF112480919F
:107F8000C00085FFB9CEBCCE8EE10E94C73CA2CD19
:0E7F900085E90E94C73C9ECDF894FFCF80008B
:00000001FF
