:100000000C9434000C9451000C9451000C94510049
:100010000C9451000C94DB000C9451000C94510092
:100020000C9451000C944C010C9451000C94510010
:100030000C9451000C9451000C9451000C945100FC
:100040000C9451000C9451000C946C010C945100D0
:100050000C9451000C9451000C9451000C945100DC
:100060000C9451000C94510011241FBECFEFD8E026
:10007000DEBFCDBF11E0A0E0B1E0E4E1F4E002C0FA
:1000800005900D92A230B107D9F721E0A2E0B1E0CE
:1000900001C01D92AA35B207E1F70E9482010C94BB
:1000A00008020C940000AF92BF92CF92DF92EF92C1
:1000B000FF920F931F93CF93DF93CDB7DEB7609777
:1000C0000FB6F894DEBF0FBECDBF8C0197FF04C002
:1000D00088279927801B910B9E012F5F3F4F690155
:1000E000F12CE12C4AE0A42EB12CF7013196B50198
:1000F0000E94E001805DD6018D936D01CB01181641
:1001000019060CF442C017FF06C0E20FF31F8DE280
:100110008083F7013296E20FF31F1082D901FD01AF
:10012000E21BF30B8D918111FACF7F01E20EF31EDA
:10013000D901890100951095B8016E0D7F1DAD01A3
:10014000421B530B4617570714F1F901E80FF11D35
:1001500087FDFA959081911126C08091C00085FF9E
:10016000FCCF8CE28093C60060960FB6F894DEBF99
:100170000FBECDBFDF91CF911F910F91FF90EF90F8
:10018000DF90CF90BF90AF9008957F01AECF9D914B
:10019000F70162917F01AD0141505109FA0160837D
:1001A000F7019083C9CF4091C00045FFFCCF9093E9
:1001B000C6008F5FCACF1F920F920FB60F92112405
:1001C0004F935F936F937F938F939F93EF93FF93DF
:1001D0004B9B36C089B18091060190910701FC01CB
:1001E000EE0FFF1FEE0FFF1FEE5CFE4F4091080168
:1001F00050910901052E000C660B770B408351834B
:10020000628373831092090110920801893091056D
:1002100089F41092070110920601FF91EF919F91CE
:100220008F917F916F915F914F910F900FBE0F90C3
:100230001F90189501969093070180930601EDCFCA
:100240004A9BEBCF83B18091020190910301FC01A5
:10025000EE0FFF1FEE0FFF1FE65FFE4F4091040100
:1002600050910501052E000C660B770B40835183DE
:100270006283738310920501109204018930910505
:1002800029F41092030110920201C7CF01969093B6
:10029000030180930201C1CF1F920F920FB60F92FC
:1002A00011248F939F9380910801909109010196E9
:1002B00090930901809308018091040190910501B8
:1002C000019690930501809304019F918F910F9067
:1002D0000FBE0F901F9018951F920F920FB60F929E
:1002E00011248F939F932E9A8091C60090E0909353
:1002F0000101809300019F918F910F900FBE0F908D
:100300001F901895279A559A569A219A229A53988F
:100310005798529820982F981092C5008CE080939F
:10032000C40088E98093C10086E08093C200269AC9
:100330001092B00081E0809370001092B100809123
:10034000680084608093680080916D008C60809369
:100350006D0078942E9881E090E00E945300809187
:100360000001909101018130910519F45D985E982A
:10037000F1CF8230910519F45D985E9AEBCF83300E
:10038000910511F45D9AF3CF8430910519F4299801
:100390002A98E0CF8530910519F429982A9ADACF66
:1003A0008630910511F4299AF3CF079799F690E0DA
:1003B00080E00E94530090E080E00E945300CACF8A
:1003C00097FB072E16F4009407D077FD09D00E9402
:1003D000F40107FC05D03EF4909581959F4F089558
:1003E000709561957F4F0895AA1BBB1B51E107C013
:1003F000AA1FBB1FA617B70710F0A61BB70B881FB5
:10040000991F5A95A9F780959095BC01CD01089543
:04041000F894FFCF8E
:02041400FFFFE8
:00000001FF
